{
  "_format": "hh-sol-artifact-1",
  "contractName": "Other",
  "sourceName": "contracts/Other.sol",
  "abi": [
    {
      "inputs": [],
      "stateMutability": "nonpayable",
      "type": "constructor"
    },
    {
      "inputs": [
        {
          "internalType": "address",
          "name": "other",
          "type": "address"
        }
      ],
      "name": "otherExtractHost",
      "outputs": [],
      "stateMutability": "nonpayable",
      "type": "function"
    },
    {
      "inputs": [],
      "name": "otherGetHost",
      "outputs": [
        {
          "internalType": "address",
          "name": "",
          "type": "address"
        }
      ],
      "stateMutability": "view",
      "type": "function"
    },
    {
      "inputs": [
        {
          "internalType": "address",
          "name": "other",
          "type": "address"
        }
      ],
      "name": "otherSetHost",
      "outputs": [],
      "stateMutability": "nonpayable",
      "type": "function"
    },
    {
      "inputs": [],
      "name": "otherSetHostStatus",
      "outputs": [
        {
          "internalType": "bool",
          "name": "",
          "type": "bool"
        }
      ],
      "stateMutability": "view",
      "type": "function"
    }
  ],
  "bytecode": "0x608060405234801561001057600080fd5b50610571806100206000396000f3fe608060405234801561001057600080fd5b506004361061004c5760003560e01c806346a2f1b4146100515780636148696c1461006f57806396454be01461008b578063e5b66891146100a7575b600080fd5b6100596100c5565b6040516100669190610399565b60405180910390f35b610089600480360381019061008491906103e5565b6100ee565b005b6100a560048036038101906100a091906103e5565b610237565b005b6100af610342565b6040516100bc919061042d565b60405180910390f35b60008060009054906101000a900473ffffffffffffffffffffffffffffffffffffffff16905090565b6000808273ffffffffffffffffffffffffffffffffffffffff166040516024016040516020818303038152906040527f87182775000000000000000000000000000000000000000000000000000000007bffffffffffffffffffffffffffffffffffffffffffffffffffffffff19166020820180517bffffffffffffffffffffffffffffffffffffffffffffffffffffffff838183161783525050505060405161019891906104b9565b6000604051808303816000865af19150503d80600081146101d5576040519150601f19603f3d011682016040523d82523d6000602084013e6101da565b606091505b5091509150808060200190518101906101f3919061050e565b6000806101000a81548173ffffffffffffffffffffffffffffffffffffffff021916908373ffffffffffffffffffffffffffffffffffffffff160217905550505050565b8073ffffffffffffffffffffffffffffffffffffffff166040516024016040516020818303038152906040527fd4dd9a55000000000000000000000000000000000000000000000000000000007bffffffffffffffffffffffffffffffffffffffffffffffffffffffff19166020820180517bffffffffffffffffffffffffffffffffffffffffffffffffffffffff83818316178352505050506040516102de91906104b9565b6000604051808303816000865af19150503d806000811461031b576040519150601f19603f3d011682016040523d82523d6000602084013e610320565b606091505b5050600060148291906101000a81548160ff0219169083151502179055505050565b60008060149054906101000a900460ff16905090565b600073ffffffffffffffffffffffffffffffffffffffff82169050919050565b600061038382610358565b9050919050565b61039381610378565b82525050565b60006020820190506103ae600083018461038a565b92915050565b600080fd5b6103c281610378565b81146103cd57600080fd5b50565b6000813590506103df816103b9565b92915050565b6000602082840312156103fb576103fa6103b4565b5b6000610409848285016103d0565b91505092915050565b60008115159050919050565b61042781610412565b82525050565b6000602082019050610442600083018461041e565b92915050565b600081519050919050565b600081905092915050565b60005b8381101561047c578082015181840152602081019050610461565b60008484015250505050565b600061049382610448565b61049d8185610453565b93506104ad81856020860161045e565b80840191505092915050565b60006104c58284610488565b915081905092915050565b60006104db82610358565b9050919050565b6104eb816104d0565b81146104f657600080fd5b50565b600081519050610508816104e2565b92915050565b600060208284031215610524576105236103b4565b5b6000610532848285016104f9565b9150509291505056fea2646970667358221220706fe247ad96a2c1d923f0f65b51f1917b6f1d8d49a8dc07be132e33836cccf064736f6c63430008110033",
  "linkReferences": {},
  "deployedLinkReferences": {}
}