{
  "_format": "hh-sol-artifact-1",
  "contractName": "Game",
  "sourceName": "contracts/Game.sol",
  "abi": [
    {
      "inputs": [],
      "stateMutability": "nonpayable",
      "type": "constructor"
    },
    {
      "anonymous": false,
      "inputs": [
        {
          "indexed": false,
          "internalType": "address",
          "name": "_host",
          "type": "address"
        }
      ],
      "name": "hostChange",
      "type": "event"
    },
    {
      "inputs": [
        {
          "internalType": "address",
          "name": "",
          "type": "address"
        }
      ],
      "name": "decisions",
      "outputs": [
        {
          "internalType": "bytes32",
          "name": "",
          "type": "bytes32"
        }
      ],
      "stateMutability": "view",
      "type": "function"
    },
    {
      "inputs": [],
      "name": "end",
      "outputs": [],
      "stateMutability": "nonpayable",
      "type": "function"
    },
    {
      "inputs": [
        {
          "internalType": "bytes32",
          "name": "_move",
          "type": "bytes32"
        }
      ],
      "name": "moveCommit",
      "outputs": [],
      "stateMutability": "nonpayable",
      "type": "function"
    },
    {
      "inputs": [
        {
          "internalType": "int256",
          "name": "_move",
          "type": "int256"
        },
        {
          "internalType": "bytes32",
          "name": "_code",
          "type": "bytes32"
        }
      ],
      "name": "moveReveal",
      "outputs": [],
      "stateMutability": "nonpayable",
      "type": "function"
    },
    {
      "inputs": [
        {
          "internalType": "address",
          "name": "",
          "type": "address"
        }
      ],
      "name": "moves",
      "outputs": [
        {
          "internalType": "enum Game.Move",
          "name": "",
          "type": "uint8"
        }
      ],
      "stateMutability": "view",
      "type": "function"
    },
    {
      "inputs": [],
      "name": "setHost",
      "outputs": [],
      "stateMutability": "nonpayable",
      "type": "function"
    },
    {
      "inputs": [],
      "name": "start",
      "outputs": [],
      "stateMutability": "nonpayable",
      "type": "function"
    }
  ],
  "bytecode": "0x608060405234801561001057600080fd5b5060008060006101000a81548160ff0219169083151502179055506109c08061003a6000396000f3fe608060405234801561001057600080fd5b506004361061007d5760003560e01c8063be9a65551161005b578063be9a6555146100ea578063d4dd9a55146100f4578063e15a808b146100fe578063efbe1c1c1461012e5761007d565b80630b209bc01461008257806375c5d58d1461009e5780639ded8f91146100ce575b600080fd5b61009c600480360381019061009791906106af565b610138565b005b6100b860048036038101906100b3919061073a565b6101ed565b6040516100c59190610776565b60405180910390f35b6100e860048036038101906100e391906107c7565b610205565b005b6100f26104ae565b005b6100fc610524565b005b6101186004803603810190610113919061073a565b6105de565b604051610125919061087e565b60405180910390f35b6101366105fe565b005b6001151560008054906101000a900460ff1615151461015657600080fd5b336000801b600260008373ffffffffffffffffffffffffffffffffffffffff1673ffffffffffffffffffffffffffffffffffffffff16815260200190815260200160002054146101a557600080fd5b81600260003373ffffffffffffffffffffffffffffffffffffffff1673ffffffffffffffffffffffffffffffffffffffff168152602001908152602001600020819055505050565b60026020528060005260406000206000915090505481565b6000151560008054906101000a900460ff1615151461022357600080fd5b600082823360405160200161023a93929190610923565b60405160208183030381529060405280519060200120905080600260003373ffffffffffffffffffffffffffffffffffffffff1673ffffffffffffffffffffffffffffffffffffffff168152602001908152602001600020541461029d57600080fd5b600260003373ffffffffffffffffffffffffffffffffffffffff1673ffffffffffffffffffffffffffffffffffffffff1681526020019081526020016000206000905560008303610355576000600160003373ffffffffffffffffffffffffffffffffffffffff1673ffffffffffffffffffffffffffffffffffffffff16815260200190815260200160002060006101000a81548160ff0219169083600381111561034b5761034a610807565b5b02179055506104a9565b600183036103c95760018060003373ffffffffffffffffffffffffffffffffffffffff1673ffffffffffffffffffffffffffffffffffffffff16815260200190815260200160002060006101000a81548160ff021916908360038111156103bf576103be610807565b5b02179055506104a8565b6002830361043e576002600160003373ffffffffffffffffffffffffffffffffffffffff1673ffffffffffffffffffffffffffffffffffffffff16815260200190815260200160002060006101000a81548160ff0219169083600381111561043457610433610807565b5b02179055506104a7565b6003600160003373ffffffffffffffffffffffffffffffffffffffff1673ffffffffffffffffffffffffffffffffffffffff16815260200190815260200160002060006101000a81548160ff021916908360038111156104a1576104a0610807565b5b02179055505b5b5b505050565b600360009054906101000a900473ffffffffffffffffffffffffffffffffffffffff1673ffffffffffffffffffffffffffffffffffffffff163373ffffffffffffffffffffffffffffffffffffffff161461050857600080fd5b60016000806101000a81548160ff021916908315150217905550565b6000151560008054906101000a900460ff1615151461054257600080fd5b33600360006101000a81548173ffffffffffffffffffffffffffffffffffffffff021916908373ffffffffffffffffffffffffffffffffffffffff1602179055507f054746ec6d73e632bd4bc64f61c847fc84b95a3dc85bb1f7a4c83c8bcfb912af600360009054906101000a900473ffffffffffffffffffffffffffffffffffffffff166040516105d4919061096f565b60405180910390a1565b60016020528060005260406000206000915054906101000a900460ff1681565b600360009054906101000a900473ffffffffffffffffffffffffffffffffffffffff1673ffffffffffffffffffffffffffffffffffffffff163373ffffffffffffffffffffffffffffffffffffffff161461065857600080fd5b60008060006101000a81548160ff021916908315150217905550565b600080fd5b6000819050919050565b61068c81610679565b811461069757600080fd5b50565b6000813590506106a981610683565b92915050565b6000602082840312156106c5576106c4610674565b5b60006106d38482850161069a565b91505092915050565b600073ffffffffffffffffffffffffffffffffffffffff82169050919050565b6000610707826106dc565b9050919050565b610717816106fc565b811461072257600080fd5b50565b6000813590506107348161070e565b92915050565b6000602082840312156107505761074f610674565b5b600061075e84828501610725565b91505092915050565b61077081610679565b82525050565b600060208201905061078b6000830184610767565b92915050565b6000819050919050565b6107a481610791565b81146107af57600080fd5b50565b6000813590506107c18161079b565b92915050565b600080604083850312156107de576107dd610674565b5b60006107ec858286016107b2565b92505060206107fd8582860161069a565b9150509250929050565b7f4e487b7100000000000000000000000000000000000000000000000000000000600052602160045260246000fd5b6004811061084757610846610807565b5b50565b600081905061085882610836565b919050565b60006108688261084a565b9050919050565b6108788161085d565b82525050565b6000602082019050610893600083018461086f565b92915050565b6000819050919050565b6108b46108af82610791565b610899565b82525050565b6000819050919050565b6108d56108d082610679565b6108ba565b82525050565b60008160601b9050919050565b60006108f3826108db565b9050919050565b6000610905826108e8565b9050919050565b61091d610918826106fc565b6108fa565b82525050565b600061092f82866108a3565b60208201915061093f82856108c4565b60208201915061094f828461090c565b601482019150819050949350505050565b610969816106fc565b82525050565b60006020820190506109846000830184610960565b9291505056fea264697066735822122005b2dba9649b75dd1e54ce48fa5c053100ab7698c63c3efe0f00a5fbb41657fe64736f6c63430008110033",
  "linkReferences": {},
  "deployedLinkReferences": {}
}