{
  "_format": "hh-sol-artifact-1",
  "contractName": "Game",
  "sourceName": "contracts/Game.sol",
  "abi": [
    {
      "inputs": [],
      "stateMutability": "nonpayable",
      "type": "constructor"
    },
    {
      "anonymous": false,
      "inputs": [
        {
          "indexed": false,
          "internalType": "address",
          "name": "_host",
          "type": "address"
        }
      ],
      "name": "hostChange",
      "type": "event"
    },
    {
      "inputs": [],
      "name": "checkHost",
      "outputs": [
        {
          "internalType": "address",
          "name": "",
          "type": "address"
        }
      ],
      "stateMutability": "view",
      "type": "function"
    },
    {
      "inputs": [
        {
          "internalType": "address",
          "name": "",
          "type": "address"
        }
      ],
      "name": "decisions",
      "outputs": [
        {
          "internalType": "bytes32",
          "name": "",
          "type": "bytes32"
        }
      ],
      "stateMutability": "view",
      "type": "function"
    },
    {
      "inputs": [],
      "name": "end",
      "outputs": [],
      "stateMutability": "nonpayable",
      "type": "function"
    },
    {
      "inputs": [
        {
          "internalType": "bytes32",
          "name": "_move",
          "type": "bytes32"
        }
      ],
      "name": "moveCommit",
      "outputs": [],
      "stateMutability": "nonpayable",
      "type": "function"
    },
    {
      "inputs": [
        {
          "internalType": "int256",
          "name": "_move",
          "type": "int256"
        },
        {
          "internalType": "bytes32",
          "name": "_code",
          "type": "bytes32"
        }
      ],
      "name": "moveReveal",
      "outputs": [],
      "stateMutability": "nonpayable",
      "type": "function"
    },
    {
      "inputs": [
        {
          "internalType": "address",
          "name": "",
          "type": "address"
        }
      ],
      "name": "moves",
      "outputs": [
        {
          "internalType": "enum Game.Move",
          "name": "",
          "type": "uint8"
        }
      ],
      "stateMutability": "view",
      "type": "function"
    },
    {
      "inputs": [],
      "name": "setHost",
      "outputs": [],
      "stateMutability": "nonpayable",
      "type": "function"
    },
    {
      "inputs": [],
      "name": "start",
      "outputs": [],
      "stateMutability": "nonpayable",
      "type": "function"
    }
  ],
  "bytecode": "0x608060405234801561001057600080fd5b5060008060006101000a81548160ff021916908315150217905550610a138061003a6000396000f3fe608060405234801561001057600080fd5b50600436106100885760003560e01c8063be9a65551161005b578063be9a655514610113578063d4dd9a551461011d578063e15a808b14610127578063efbe1c1c1461015757610088565b80630b209bc01461008d57806375c5d58d146100a957806387182775146100d95780639ded8f91146100f7575b600080fd5b6100a760048036038101906100a29190610702565b610161565b005b6100c360048036038101906100be919061078d565b610216565b6040516100d091906107c9565b60405180910390f35b6100e161022e565b6040516100ee91906107f3565b60405180910390f35b610111600480360381019061010c9190610844565b610258565b005b61011b610501565b005b610125610577565b005b610141600480360381019061013c919061078d565b610631565b60405161014e91906108fb565b60405180910390f35b61015f610651565b005b6001151560008054906101000a900460ff1615151461017f57600080fd5b336000801b600260008373ffffffffffffffffffffffffffffffffffffffff1673ffffffffffffffffffffffffffffffffffffffff16815260200190815260200160002054146101ce57600080fd5b81600260003373ffffffffffffffffffffffffffffffffffffffff1673ffffffffffffffffffffffffffffffffffffffff168152602001908152602001600020819055505050565b60026020528060005260406000206000915090505481565b6000600360009054906101000a900473ffffffffffffffffffffffffffffffffffffffff16905090565b6000151560008054906101000a900460ff1615151461027657600080fd5b600082823360405160200161028d939291906109a0565b60405160208183030381529060405280519060200120905080600260003373ffffffffffffffffffffffffffffffffffffffff1673ffffffffffffffffffffffffffffffffffffffff16815260200190815260200160002054146102f057600080fd5b600260003373ffffffffffffffffffffffffffffffffffffffff1673ffffffffffffffffffffffffffffffffffffffff16815260200190815260200160002060009055600083036103a8576000600160003373ffffffffffffffffffffffffffffffffffffffff1673ffffffffffffffffffffffffffffffffffffffff16815260200190815260200160002060006101000a81548160ff0219169083600381111561039e5761039d610884565b5b02179055506104fc565b6001830361041c5760018060003373ffffffffffffffffffffffffffffffffffffffff1673ffffffffffffffffffffffffffffffffffffffff16815260200190815260200160002060006101000a81548160ff0219169083600381111561041257610411610884565b5b02179055506104fb565b60028303610491576002600160003373ffffffffffffffffffffffffffffffffffffffff1673ffffffffffffffffffffffffffffffffffffffff16815260200190815260200160002060006101000a81548160ff0219169083600381111561048757610486610884565b5b02179055506104fa565b6003600160003373ffffffffffffffffffffffffffffffffffffffff1673ffffffffffffffffffffffffffffffffffffffff16815260200190815260200160002060006101000a81548160ff021916908360038111156104f4576104f3610884565b5b02179055505b5b5b505050565b600360009054906101000a900473ffffffffffffffffffffffffffffffffffffffff1673ffffffffffffffffffffffffffffffffffffffff163373ffffffffffffffffffffffffffffffffffffffff161461055b57600080fd5b60016000806101000a81548160ff021916908315150217905550565b6000151560008054906101000a900460ff1615151461059557600080fd5b33600360006101000a81548173ffffffffffffffffffffffffffffffffffffffff021916908373ffffffffffffffffffffffffffffffffffffffff1602179055507f054746ec6d73e632bd4bc64f61c847fc84b95a3dc85bb1f7a4c83c8bcfb912af600360009054906101000a900473ffffffffffffffffffffffffffffffffffffffff1660405161062791906107f3565b60405180910390a1565b60016020528060005260406000206000915054906101000a900460ff1681565b600360009054906101000a900473ffffffffffffffffffffffffffffffffffffffff1673ffffffffffffffffffffffffffffffffffffffff163373ffffffffffffffffffffffffffffffffffffffff16146106ab57600080fd5b60008060006101000a81548160ff021916908315150217905550565b600080fd5b6000819050919050565b6106df816106cc565b81146106ea57600080fd5b50565b6000813590506106fc816106d6565b92915050565b600060208284031215610718576107176106c7565b5b6000610726848285016106ed565b91505092915050565b600073ffffffffffffffffffffffffffffffffffffffff82169050919050565b600061075a8261072f565b9050919050565b61076a8161074f565b811461077557600080fd5b50565b60008135905061078781610761565b92915050565b6000602082840312156107a3576107a26106c7565b5b60006107b184828501610778565b91505092915050565b6107c3816106cc565b82525050565b60006020820190506107de60008301846107ba565b92915050565b6107ed8161074f565b82525050565b600060208201905061080860008301846107e4565b92915050565b6000819050919050565b6108218161080e565b811461082c57600080fd5b50565b60008135905061083e81610818565b92915050565b6000806040838503121561085b5761085a6106c7565b5b60006108698582860161082f565b925050602061087a858286016106ed565b9150509250929050565b7f4e487b7100000000000000000000000000000000000000000000000000000000600052602160045260246000fd5b600481106108c4576108c3610884565b5b50565b60008190506108d5826108b3565b919050565b60006108e5826108c7565b9050919050565b6108f5816108da565b82525050565b600060208201905061091060008301846108ec565b92915050565b6000819050919050565b61093161092c8261080e565b610916565b82525050565b6000819050919050565b61095261094d826106cc565b610937565b82525050565b60008160601b9050919050565b600061097082610958565b9050919050565b600061098282610965565b9050919050565b61099a6109958261074f565b610977565b82525050565b60006109ac8286610920565b6020820191506109bc8285610941565b6020820191506109cc8284610989565b60148201915081905094935050505056fea2646970667358221220d26f6855db69b8352e8c2cea679b97c01cb296c77d5409e7b1fdb5fad4aa8e7164736f6c63430008110033",
  "linkReferences": {},
  "deployedLinkReferences": {}
}