{
  "_format": "hh-sol-artifact-1",
  "contractName": "Bets",
  "sourceName": "contracts/Bets.sol",
  "abi": [
    {
      "inputs": [],
      "stateMutability": "nonpayable",
      "type": "constructor"
    },
    {
      "inputs": [
        {
          "internalType": "address",
          "name": "",
          "type": "address"
        }
      ],
      "name": "bets",
      "outputs": [
        {
          "internalType": "bool",
          "name": "choice",
          "type": "bool"
        },
        {
          "internalType": "int256",
          "name": "enteredGame",
          "type": "int256"
        }
      ],
      "stateMutability": "view",
      "type": "function"
    },
    {
      "inputs": [],
      "name": "condition",
      "outputs": [
        {
          "internalType": "string",
          "name": "",
          "type": "string"
        }
      ],
      "stateMutability": "view",
      "type": "function"
    },
    {
      "inputs": [
        {
          "internalType": "address",
          "name": "",
          "type": "address"
        }
      ],
      "name": "decisionsOpened",
      "outputs": [
        {
          "internalType": "bool",
          "name": "",
          "type": "bool"
        }
      ],
      "stateMutability": "view",
      "type": "function"
    },
    {
      "inputs": [],
      "name": "duration",
      "outputs": [
        {
          "internalType": "uint256",
          "name": "",
          "type": "uint256"
        }
      ],
      "stateMutability": "view",
      "type": "function"
    },
    {
      "inputs": [],
      "name": "gameOn",
      "outputs": [
        {
          "internalType": "bool",
          "name": "",
          "type": "bool"
        }
      ],
      "stateMutability": "view",
      "type": "function"
    },
    {
      "inputs": [],
      "name": "host",
      "outputs": [
        {
          "internalType": "address",
          "name": "",
          "type": "address"
        }
      ],
      "stateMutability": "view",
      "type": "function"
    },
    {
      "inputs": [],
      "name": "judgeNumber",
      "outputs": [
        {
          "internalType": "uint256",
          "name": "",
          "type": "uint256"
        }
      ],
      "stateMutability": "view",
      "type": "function"
    },
    {
      "inputs": [
        {
          "internalType": "address",
          "name": "",
          "type": "address"
        }
      ],
      "name": "judges",
      "outputs": [
        {
          "internalType": "bool",
          "name": "",
          "type": "bool"
        }
      ],
      "stateMutability": "view",
      "type": "function"
    },
    {
      "inputs": [],
      "name": "money",
      "outputs": [
        {
          "internalType": "uint256",
          "name": "",
          "type": "uint256"
        }
      ],
      "stateMutability": "view",
      "type": "function"
    },
    {
      "inputs": [],
      "name": "moneyFinal",
      "outputs": [
        {
          "internalType": "uint256",
          "name": "",
          "type": "uint256"
        }
      ],
      "stateMutability": "view",
      "type": "function"
    },
    {
      "inputs": [
        {
          "internalType": "bytes32",
          "name": "_vote",
          "type": "bytes32"
        }
      ],
      "name": "moveCommit",
      "outputs": [],
      "stateMutability": "nonpayable",
      "type": "function"
    },
    {
      "inputs": [
        {
          "internalType": "bool",
          "name": "_vote",
          "type": "bool"
        },
        {
          "internalType": "bytes32",
          "name": "_code",
          "type": "bytes32"
        }
      ],
      "name": "moveReveal",
      "outputs": [],
      "stateMutability": "nonpayable",
      "type": "function"
    },
    {
      "inputs": [],
      "name": "players",
      "outputs": [
        {
          "internalType": "uint256",
          "name": "",
          "type": "uint256"
        }
      ],
      "stateMutability": "view",
      "type": "function"
    },
    {
      "inputs": [
        {
          "internalType": "bool",
          "name": "choice",
          "type": "bool"
        }
      ],
      "name": "register",
      "outputs": [],
      "stateMutability": "payable",
      "type": "function"
    },
    {
      "inputs": [],
      "name": "registered",
      "outputs": [
        {
          "internalType": "uint256",
          "name": "",
          "type": "uint256"
        }
      ],
      "stateMutability": "view",
      "type": "function"
    },
    {
      "inputs": [
        {
          "internalType": "string",
          "name": "cond",
          "type": "string"
        },
        {
          "internalType": "uint256",
          "name": "plr",
          "type": "uint256"
        },
        {
          "internalType": "uint256",
          "name": "dur",
          "type": "uint256"
        }
      ],
      "name": "setHost",
      "outputs": [],
      "stateMutability": "payable",
      "type": "function"
    },
    {
      "inputs": [],
      "name": "setJudge",
      "outputs": [],
      "stateMutability": "nonpayable",
      "type": "function"
    },
    {
      "inputs": [],
      "name": "start",
      "outputs": [],
      "stateMutability": "nonpayable",
      "type": "function"
    }
  ],
  "bytecode": "0x608060405234801561001057600080fd5b506000600360006101000a81548160ff02191690831515021790555060006002819055506000600b81905550600060088190555060006007819055506124968061005b6000396000f3fe6080604052600436106101095760003560e01c80638422a2f211610095578063c503133111610064578063c50313311461032c578063d62bd57e14610357578063dc0b356414610382578063f437bc59146103ad578063f761813e146103d857610109565b80638422a2f21461027e57806389a78f1a146102bb578063be123145146102f9578063be9a65551461031557610109565b80633e1fe4dc116100dc5780633e1fe4dc146101b85780634ddd108a146101cf5780637078696b146101fa57806371be46ea1461022557806382cdf7251461026257610109565b80630b209bc01461010e5780630fb5a6b4146101375780632583dc87146101625780632de40ce31461018d575b600080fd5b34801561011a57600080fd5b50610135600480360381019061013091906115b7565b610401565b005b34801561014357600080fd5b5061014c610555565b60405161015991906115fd565b60405180910390f35b34801561016e57600080fd5b5061017761055b565b6040516101849190611633565b60405180910390f35b34801561019957600080fd5b506101a261056e565b6040516101af91906115fd565b60405180910390f35b3480156101c457600080fd5b506101cd610574565b005b3480156101db57600080fd5b506101e461077b565b6040516101f191906115fd565b60405180910390f35b34801561020657600080fd5b5061020f610781565b60405161021c91906115fd565b60405180910390f35b34801561023157600080fd5b5061024c600480360381019061024791906116ac565b610787565b6040516102599190611633565b60405180910390f35b61027c6004803603810190610277919061184b565b6107a7565b005b34801561028a57600080fd5b506102a560048036038101906102a091906116ac565b6109b2565b6040516102b29190611633565b60405180910390f35b3480156102c757600080fd5b506102e260048036038101906102dd91906116ac565b6109d2565b6040516102f09291906118d3565b60405180910390f35b610313600480360381019061030e9190611928565b610a03565b005b34801561032157600080fd5b5061032a610dac565b005b34801561033857600080fd5b50610341610f21565b60405161034e91906119d4565b60405180910390f35b34801561036357600080fd5b5061036c610faf565b60405161037991906115fd565b60405180910390f35b34801561038e57600080fd5b50610397610fb5565b6040516103a491906115fd565b60405180910390f35b3480156103b957600080fd5b506103c2610fbb565b6040516103cf9190611a05565b60405180910390f35b3480156103e457600080fd5b506103ff60048036038101906103fa9190611a20565b610fe1565b005b60011515600360009054906101000a900460ff16151514610457576040517f08c379a000000000000000000000000000000000000000000000000000000000815260040161044e90611aac565b60405180910390fd5b336000801b600d60008373ffffffffffffffffffffffffffffffffffffffff1673ffffffffffffffffffffffffffffffffffffffff16815260200190815260200160002054146104a657600080fd5b4262013ec06006546104b89190611afb565b6005546104c59190611b3d565b106104cf57600080fd5b81600d60003373ffffffffffffffffffffffffffffffffffffffff1673ffffffffffffffffffffffffffffffffffffffff168152602001908152602001600020819055506007600081548092919061052690611b71565b9190505550600360075403610551576000600360006101000a81548160ff0219169083151502179055505b5050565b60065481565b600360009054906101000a900460ff1681565b60025481565b60001515600360009054906101000a900460ff161515146105ca576040517f08c379a00000000000000000000000000000000000000000000000000000000081526004016105c190611c05565b60405180910390fd5b6003600b541061060f576040517f08c379a000000000000000000000000000000000000000000000000000000000815260040161060690611c71565b60405180910390fd5b3360001515600f60008373ffffffffffffffffffffffffffffffffffffffff1673ffffffffffffffffffffffffffffffffffffffff16815260200190815260200160002060009054906101000a900460ff161515146106a3576040517f08c379a000000000000000000000000000000000000000000000000000000000815260040161069a90611cdd565b60405180910390fd5b6001600f60003373ffffffffffffffffffffffffffffffffffffffff1673ffffffffffffffffffffffffffffffffffffffff16815260200190815260200160002060006101000a81548160ff0219169083151502179055506010339080600181540180825580915050600190039060005260206000200160009091909190916101000a81548173ffffffffffffffffffffffffffffffffffffffff021916908373ffffffffffffffffffffffffffffffffffffffff1602179055506001600b60008282546107719190611b3d565b9250508190555050565b60005481565b600a5481565b600e6020528060005260406000206000915054906101000a900460ff1681565b60001515600360009054906101000a900460ff161515146107fd576040517f08c379a00000000000000000000000000000000000000000000000000000000081526004016107f490611c05565b60405180910390fd5b33600960006101000a81548173ffffffffffffffffffffffffffffffffffffffff021916908373ffffffffffffffffffffffffffffffffffffffff1602179055503460008190555082600490816108549190611f09565b508060068190555081600181905550600060405180604001604052806001151581526020016001815250905080600c6000600960009054906101000a900473ffffffffffffffffffffffffffffffffffffffff1673ffffffffffffffffffffffffffffffffffffffff1673ffffffffffffffffffffffffffffffffffffffff16815260200190815260200160002060008201518160000160006101000a81548160ff021916908315150217905550602082015181600101559050506011600960009054906101000a900473ffffffffffffffffffffffffffffffffffffffff169080600181540180825580915050600190039060005260206000200160009091909190916101000a81548173ffffffffffffffffffffffffffffffffffffffff021916908373ffffffffffffffffffffffffffffffffffffffff160217905550600260008154809291906109a790611b71565b919050555050505050565b600f6020528060005260406000206000915054906101000a900460ff1681565b600c6020528060005260406000206000915090508060000160009054906101000a900460ff16908060010154905082565b60001515600360009054906101000a900460ff16151514610a59576040517f08c379a0000000000000000000000000000000000000000000000000000000008152600401610a5090611c05565b60405180910390fd5b60015460025410610a9f576040517f08c379a0000000000000000000000000000000000000000000000000000000008152600401610a9690612027565b60405180910390fd5b6003600b5414610ae4576040517f08c379a0000000000000000000000000000000000000000000000000000000008152600401610adb90612093565b60405180910390fd5b6000600c60003373ffffffffffffffffffffffffffffffffffffffff1673ffffffffffffffffffffffffffffffffffffffff1681526020019081526020016000206001015414610b69576040517f08c379a0000000000000000000000000000000000000000000000000000000008152600401610b6090612125565b60405180910390fd5b600054341015610bae576040517f08c379a0000000000000000000000000000000000000000000000000000000008152600401610ba5906121b7565b60405180910390fd5b60001515600f60003373ffffffffffffffffffffffffffffffffffffffff1673ffffffffffffffffffffffffffffffffffffffff16815260200190815260200160002060009054906101000a900460ff16151514610c41576040517f08c379a0000000000000000000000000000000000000000000000000000000008152600401610c3890612223565b60405180910390fd5b6000805434610c509190612243565b90506000811115610ca3573373ffffffffffffffffffffffffffffffffffffffff166108fc829081150290604051600060405180830381858888f19350505050158015610ca1573d6000803e3d6000fd5b505b6000604051806040016040528084151581526020016001815250905080600c60003373ffffffffffffffffffffffffffffffffffffffff1673ffffffffffffffffffffffffffffffffffffffff16815260200190815260200160002060008201518160000160006101000a81548160ff0219169083151502179055506020820151816001015590505060026000815480929190610d3f90611b71565b91905055506011339080600181540180825580915050600190039060005260206000200160009091909190916101000a81548173ffffffffffffffffffffffffffffffffffffffff021916908373ffffffffffffffffffffffffffffffffffffffff160217905550505050565b60001515600360009054906101000a900460ff16151514610e02576040517f08c379a0000000000000000000000000000000000000000000000000000000008152600401610df990611c05565b60405180910390fd5b600960009054906101000a900473ffffffffffffffffffffffffffffffffffffffff1673ffffffffffffffffffffffffffffffffffffffff163373ffffffffffffffffffffffffffffffffffffffff1614610e5c57600080fd5b60015460025414610ea2576040517f08c379a0000000000000000000000000000000000000000000000000000000008152600401610e99906122c3565b60405180910390fd5b6003600b5414610ee7576040517f08c379a0000000000000000000000000000000000000000000000000000000008152600401610ede90612093565b60405180910390fd5b6001600360006101000a81548160ff02191690831515021790555042600581905550600154600054610f199190611afb565b600a81905550565b60048054610f2e90611d2c565b80601f0160208091040260200160405190810160405280929190818152602001828054610f5a90611d2c565b8015610fa75780601f10610f7c57610100808354040283529160200191610fa7565b820191906000526020600020905b815481529060010190602001808311610f8a57829003601f168201915b505050505081565b600b5481565b60015481565b600960009054906101000a900473ffffffffffffffffffffffffffffffffffffffff1681565b60001515600360009054906101000a900460ff16151514611037576040517f08c379a000000000000000000000000000000000000000000000000000000000815260040161102e90611c05565b60405180910390fd5b600082823360405160200161104e93929190612394565b60405160208183030381529060405280519060200120905080600d60003373ffffffffffffffffffffffffffffffffffffffff1673ffffffffffffffffffffffffffffffffffffffff16815260200190815260200160002054146110b157600080fd5b600d60003373ffffffffffffffffffffffffffffffffffffffff1673ffffffffffffffffffffffffffffffffffffffff1681526020019081526020016000206000905582600e60003373ffffffffffffffffffffffffffffffffffffffff1673ffffffffffffffffffffffffffffffffffffffff16815260200190815260200160002060006101000a81548160ff02191690831515021790555060016008600082825461115e9190611b3d565b925050819055506003600854036111785761117761117d565b5b505050565b6000805b60038110156112425760011515600e6000601084815481106111a6576111a56123d1565b5b9060005260206000200160009054906101000a900473ffffffffffffffffffffffffffffffffffffffff1673ffffffffffffffffffffffffffffffffffffffff1673ffffffffffffffffffffffffffffffffffffffff16815260200190815260200160002060009054906101000a900460ff1615150361122f57818061122b90611b71565b9250505b808061123a90611b71565b915050611181565b50600181111561125b576112566001611269565b611266565b6112656000611269565b5b50565b600060646007600a5461127c9190611afb565b611286919061242f565b905060005b600381101561132c57601081815481106112a8576112a76123d1565b5b9060005260206000200160009054906101000a900473ffffffffffffffffffffffffffffffffffffffff1673ffffffffffffffffffffffffffffffffffffffff166108fc839081150290604051600060405180830381858888f19350505050158015611318573d6000803e3d6000fd5b50808061132490611b71565b91505061128b565b50600060048261133c9190611afb565b600a600082825461134d9190612243565b9250508190555060005b60015481101561141b57831515600c60006011848154811061137c5761137b6123d1565b5b9060005260206000200160009054906101000a900473ffffffffffffffffffffffffffffffffffffffff1673ffffffffffffffffffffffffffffffffffffffff1673ffffffffffffffffffffffffffffffffffffffff16815260200190815260200160002060000160009054906101000a900460ff1615150361140857818061140490611b71565b9250505b808061141390611b71565b915050611357565b5060005b60015481101561156757831515600c600060118481548110611444576114436123d1565b5b9060005260206000200160009054906101000a900473ffffffffffffffffffffffffffffffffffffffff1673ffffffffffffffffffffffffffffffffffffffff1673ffffffffffffffffffffffffffffffffffffffff16815260200190815260200160002060000160009054906101000a900460ff1615150361155457601181815481106114d5576114d46123d1565b5b9060005260206000200160009054906101000a900473ffffffffffffffffffffffffffffffffffffffff1673ffffffffffffffffffffffffffffffffffffffff166108fc83600a54611527919061242f565b9081150290604051600060405180830381858888f19350505050158015611552573d6000803e3d6000fd5b505b808061155f90611b71565b91505061141f565b50505050565b6000604051905090565b600080fd5b600080fd5b6000819050919050565b61159481611581565b811461159f57600080fd5b50565b6000813590506115b18161158b565b92915050565b6000602082840312156115cd576115cc611577565b5b60006115db848285016115a2565b91505092915050565b6000819050919050565b6115f7816115e4565b82525050565b600060208201905061161260008301846115ee565b92915050565b60008115159050919050565b61162d81611618565b82525050565b60006020820190506116486000830184611624565b92915050565b600073ffffffffffffffffffffffffffffffffffffffff82169050919050565b60006116798261164e565b9050919050565b6116898161166e565b811461169457600080fd5b50565b6000813590506116a681611680565b92915050565b6000602082840312156116c2576116c1611577565b5b60006116d084828501611697565b91505092915050565b600080fd5b600080fd5b6000601f19601f8301169050919050565b7f4e487b7100000000000000000000000000000000000000000000000000000000600052604160045260246000fd5b61172c826116e3565b810181811067ffffffffffffffff8211171561174b5761174a6116f4565b5b80604052505050565b600061175e61156d565b905061176a8282611723565b919050565b600067ffffffffffffffff82111561178a576117896116f4565b5b611793826116e3565b9050602081019050919050565b82818337600083830152505050565b60006117c26117bd8461176f565b611754565b9050828152602081018484840111156117de576117dd6116de565b5b6117e98482856117a0565b509392505050565b600082601f830112611806576118056116d9565b5b81356118168482602086016117af565b91505092915050565b611828816115e4565b811461183357600080fd5b50565b6000813590506118458161181f565b92915050565b60008060006060848603121561186457611863611577565b5b600084013567ffffffffffffffff8111156118825761188161157c565b5b61188e868287016117f1565b935050602061189f86828701611836565b92505060406118b086828701611836565b9150509250925092565b6000819050919050565b6118cd816118ba565b82525050565b60006040820190506118e86000830185611624565b6118f560208301846118c4565b9392505050565b61190581611618565b811461191057600080fd5b50565b600081359050611922816118fc565b92915050565b60006020828403121561193e5761193d611577565b5b600061194c84828501611913565b91505092915050565b600081519050919050565b600082825260208201905092915050565b60005b8381101561198f578082015181840152602081019050611974565b60008484015250505050565b60006119a682611955565b6119b08185611960565b93506119c0818560208601611971565b6119c9816116e3565b840191505092915050565b600060208201905081810360008301526119ee818461199b565b905092915050565b6119ff8161166e565b82525050565b6000602082019050611a1a60008301846119f6565b92915050565b60008060408385031215611a3757611a36611577565b5b6000611a4585828601611913565b9250506020611a56858286016115a2565b9150509250929050565b7f47616d652068617320656e646564000000000000000000000000000000000000600082015250565b6000611a96600e83611960565b9150611aa182611a60565b602082019050919050565b60006020820190508181036000830152611ac581611a89565b9050919050565b7f4e487b7100000000000000000000000000000000000000000000000000000000600052601160045260246000fd5b6000611b06826115e4565b9150611b11836115e4565b9250828202611b1f816115e4565b91508282048414831517611b3657611b35611acc565b5b5092915050565b6000611b48826115e4565b9150611b53836115e4565b9250828201905080821115611b6b57611b6a611acc565b5b92915050565b6000611b7c826115e4565b91507fffffffffffffffffffffffffffffffffffffffffffffffffffffffffffffffff8203611bae57611bad611acc565b5b600182019050919050565b7f47616d6520686173207374617274656400000000000000000000000000000000600082015250565b6000611bef601083611960565b9150611bfa82611bb9565b602082019050919050565b60006020820190508181036000830152611c1e81611be2565b9050919050565b7f54686572652061726520656e6f756768206a7564676573000000000000000000600082015250565b6000611c5b601783611960565b9150611c6682611c25565b602082019050919050565b60006020820190508181036000830152611c8a81611c4e565b9050919050565b7f54686973206a756467652068617320616c726561647920656e74657265640000600082015250565b6000611cc7601e83611960565b9150611cd282611c91565b602082019050919050565b60006020820190508181036000830152611cf681611cba565b9050919050565b7f4e487b7100000000000000000000000000000000000000000000000000000000600052602260045260246000fd5b60006002820490506001821680611d4457607f821691505b602082108103611d5757611d56611cfd565b5b50919050565b60008190508160005260206000209050919050565b60006020601f8301049050919050565b600082821b905092915050565b600060088302611dbf7fffffffffffffffffffffffffffffffffffffffffffffffffffffffffffffffff82611d82565b611dc98683611d82565b95508019841693508086168417925050509392505050565b6000819050919050565b6000611e06611e01611dfc846115e4565b611de1565b6115e4565b9050919050565b6000819050919050565b611e2083611deb565b611e34611e2c82611e0d565b848454611d8f565b825550505050565b600090565b611e49611e3c565b611e54818484611e17565b505050565b5b81811015611e7857611e6d600082611e41565b600181019050611e5a565b5050565b601f821115611ebd57611e8e81611d5d565b611e9784611d72565b81016020851015611ea6578190505b611eba611eb285611d72565b830182611e59565b50505b505050565b600082821c905092915050565b6000611ee060001984600802611ec2565b1980831691505092915050565b6000611ef98383611ecf565b9150826002028217905092915050565b611f1282611955565b67ffffffffffffffff811115611f2b57611f2a6116f4565b5b611f358254611d2c565b611f40828285611e7c565b600060209050601f831160018114611f735760008415611f61578287015190505b611f6b8582611eed565b865550611fd3565b601f198416611f8186611d5d565b60005b82811015611fa957848901518255600182019150602085019450602081019050611f84565b86831015611fc65784890151611fc2601f891682611ecf565b8355505b6001600288020188555050505b505050505050565b7f54686572652061726520746f6f206d616e7920706c6179657273000000000000600082015250565b6000612011601a83611960565b915061201c82611fdb565b602082019050919050565b6000602082019050818103600083015261204081612004565b9050919050565b7f546865726520617265206e6f7420656e6f756768206a75646765730000000000600082015250565b600061207d601b83611960565b915061208882612047565b602082019050919050565b600060208201905081810360008301526120ac81612070565b9050919050565b7f54686520616464726573732068617320616c726561647920646f6e652068697360008201527f2062657400000000000000000000000000000000000000000000000000000000602082015250565b600061210f602483611960565b915061211a826120b3565b604082019050919050565b6000602082019050818103600083015261213e81612102565b9050919050565b7f4e6f7420656e6f756768206d6f6e657920746f20656e7465722074686520636f60008201527f6e74657374000000000000000000000000000000000000000000000000000000602082015250565b60006121a1602583611960565b91506121ac82612145565b604082019050919050565b600060208201905081810360008301526121d081612194565b9050919050565b7f41206a756467652063616e6e6f74206265740000000000000000000000000000600082015250565b600061220d601283611960565b9150612218826121d7565b602082019050919050565b6000602082019050818103600083015261223c81612200565b9050919050565b600061224e826115e4565b9150612259836115e4565b925082820390508181111561227157612270611acc565b5b92915050565b7f4e6f7420656e6f75676820706c61796572730000000000000000000000000000600082015250565b60006122ad601283611960565b91506122b882612277565b602082019050919050565b600060208201905081810360008301526122dc816122a0565b9050919050565b60008160f81b9050919050565b60006122fb826122e3565b9050919050565b600061230d826122f0565b9050919050565b61232561232082611618565b612302565b82525050565b6000819050919050565b61234661234182611581565b61232b565b82525050565b60008160601b9050919050565b60006123648261234c565b9050919050565b600061237682612359565b9050919050565b61238e6123898261166e565b61236b565b82525050565b60006123a08286612314565b6001820191506123b08285612335565b6020820191506123c0828461237d565b601482019150819050949350505050565b7f4e487b7100000000000000000000000000000000000000000000000000000000600052603260045260246000fd5b7f4e487b7100000000000000000000000000000000000000000000000000000000600052601260045260246000fd5b600061243a826115e4565b9150612445836115e4565b92508261245557612454612400565b5b82820490509291505056fea2646970667358221220e9c436db3600ed1e4396b9db344ac54c8129e1e5fefc3351d73fcfffee64b88e64736f6c63430008110033",
  "linkReferences": {},
  "deployedLinkReferences": {}
}